{
  "contractName": "EventTickets",
  "abi": [
    {
      "constant": true,
      "inputs": [],
      "name": "owner",
      "outputs": [
        {
          "name": "",
          "type": "address"
        }
      ],
      "payable": false,
      "stateMutability": "view",
      "type": "function"
    },
    {
      "inputs": [
        {
          "name": "_description",
          "type": "string"
        },
        {
          "name": "_URL",
          "type": "string"
        },
        {
          "name": "_nbTickets",
          "type": "uint256"
        }
      ],
      "payable": false,
      "stateMutability": "nonpayable",
      "type": "constructor"
    },
    {
      "anonymous": false,
      "inputs": [
        {
          "indexed": true,
          "name": "purchaser",
          "type": "address"
        },
        {
          "indexed": false,
          "name": "ticketsCount",
          "type": "uint256"
        }
      ],
      "name": "LogBuyTickets",
      "type": "event"
    },
    {
      "anonymous": false,
      "inputs": [
        {
          "indexed": true,
          "name": "refundRequestor",
          "type": "address"
        },
        {
          "indexed": false,
          "name": "ticketsCount",
          "type": "uint256"
        }
      ],
      "name": "LogGetRefund",
      "type": "event"
    },
    {
      "anonymous": false,
      "inputs": [
        {
          "indexed": true,
          "name": "owner",
          "type": "address"
        },
        {
          "indexed": false,
          "name": "sales",
          "type": "uint256"
        }
      ],
      "name": "LogEndSale",
      "type": "event"
    },
    {
      "constant": true,
      "inputs": [],
      "name": "readEvent",
      "outputs": [
        {
          "name": "description",
          "type": "string"
        },
        {
          "name": "website",
          "type": "string"
        },
        {
          "name": "totalTickets",
          "type": "uint256"
        },
        {
          "name": "sales",
          "type": "uint256"
        },
        {
          "name": "isOpen",
          "type": "bool"
        }
      ],
      "payable": false,
      "stateMutability": "view",
      "type": "function"
    },
    {
      "constant": true,
      "inputs": [
        {
          "name": "buyer",
          "type": "address"
        }
      ],
      "name": "getBuyerTicketCount",
      "outputs": [
        {
          "name": "",
          "type": "uint256"
        }
      ],
      "payable": false,
      "stateMutability": "view",
      "type": "function"
    },
    {
      "constant": false,
      "inputs": [
        {
          "name": "_nbTix",
          "type": "uint256"
        }
      ],
      "name": "buyTickets",
      "outputs": [],
      "payable": true,
      "stateMutability": "payable",
      "type": "function"
    },
    {
      "constant": false,
      "inputs": [],
      "name": "getRefund",
      "outputs": [],
      "payable": true,
      "stateMutability": "payable",
      "type": "function"
    },
    {
      "constant": false,
      "inputs": [],
      "name": "endSale",
      "outputs": [],
      "payable": true,
      "stateMutability": "payable",
      "type": "function"
    }
  ],
  "bytecode": "0x6080604052606460015534801561001557600080fd5b50604051610c42380380610c428339810180604052606081101561003857600080fd5b81019080805164010000000081111561005057600080fd5b8281019050602081018481111561006657600080fd5b815185600182028301116401000000008211171561008357600080fd5b5050929190602001805164010000000081111561009f57600080fd5b828101905060208101848111156100b557600080fd5b81518560018202830111640100000000821117156100d257600080fd5b505092919060200180519060200190929190505050336000806101000a81548173ffffffffffffffffffffffffffffffffffffffff021916908373ffffffffffffffffffffffffffffffffffffffff1602179055506040518060a001604052808481526020018381526020018281526020016000815260200160011515815250600260008201518160000190805190602001906101709291906101cd565b50602082015181600101908051906020019061018d9291906101cd565b50604082015181600201556060820151816003015560808201518160050160006101000a81548160ff021916908315150217905550905050505050610272565b828054600181600116156101000203166002900490600052602060002090601f016020900481019282601f1061020e57805160ff191683800117855561023c565b8280016001018555821561023c579182015b8281111561023b578251825591602001919060010190610220565b5b509050610249919061024d565b5090565b61026f91905b8082111561026b576000816000905550600101610253565b5090565b90565b6109c1806102816000396000f3fe6080604052600436106100555760003560e01c806305aea97c1461005a5780632f3666371461016f578063380d831b1461019d5780638da5cb5b146101a7578063b2d5ae44146101fe578063edfb916714610208575b600080fd5b34801561006657600080fd5b5061006f61026d565b60405180806020018060200186815260200185815260200184151515158152602001838103835288818151815260200191508051906020019080838360005b838110156100c95780820151818401526020810190506100ae565b50505050905090810190601f1680156100f65780820380516001836020036101000a031916815260200191505b50838103825287818151815260200191508051906020019080838360005b8381101561012f578082015181840152602081019050610114565b50505050905090810190601f16801561015c5780820380516001836020036101000a031916815260200191505b5097505050505050505060405180910390f35b61019b6004803603602081101561018557600080fd5b81019080803590602001909291905050506103e6565b005b6101a561067e565b005b3480156101b357600080fd5b506101bc6107eb565b604051808273ffffffffffffffffffffffffffffffffffffffff1673ffffffffffffffffffffffffffffffffffffffff16815260200191505060405180910390f35b610206610810565b005b34801561021457600080fd5b506102576004803603602081101561022b57600080fd5b81019080803573ffffffffffffffffffffffffffffffffffffffff169060200190929190505050610949565b6040518082815260200191505060405180910390f35b6060806000806000600260000160026001016002800154600260030154600260050160009054906101000a900460ff16848054600181600116156101000203166002900480601f0160208091040260200160405190810160405280929190818152602001828054600181600116156101000203166002900480156103325780601f1061030757610100808354040283529160200191610332565b820191906000526020600020905b81548152906001019060200180831161031557829003601f168201915b50505050509450838054600181600116156101000203166002900480601f0160208091040260200160405190810160405280929190818152602001828054600181600116156101000203166002900480156103ce5780601f106103a3576101008083540402835291602001916103ce565b820191906000526020600020905b8154815290600101906020018083116103b157829003601f168201915b50505050509350945094509450945094509091929394565b600081600154029050600081340390506000600260030154600280015403905060011515600260050160009054906101000a900460ff16151514610492576040517f08c379a00000000000000000000000000000000000000000000000000000000081526004018080602001828103825260148152602001807f4576656e74206e6f206c6f6e676572206f70656e00000000000000000000000081525060200191505060405180910390fd5b80841115610508576040517f08c379a000000000000000000000000000000000000000000000000000000000815260040180806020018281038252601c8152602001807f4e6f7420656e6f756768207469636b65747320617661696c61626c650000000081525060200191505060405180910390fd5b600082101561057f576040517f08c379a00000000000000000000000000000000000000000000000000000000081526004018080602001828103825260198152602001807f4e6f7420656e6f7567682066756e64732070726f76696465640000000000000081525060200191505060405180910390fd5b8360026003016000828254019250508190555060008211156105e3573373ffffffffffffffffffffffffffffffffffffffff166108fc839081150290604051600060405180830381858888f193505050501580156105e1573d6000803e3d6000fd5b505b83600260040160003373ffffffffffffffffffffffffffffffffffffffff1673ffffffffffffffffffffffffffffffffffffffff168152602001908152602001600020819055503373ffffffffffffffffffffffffffffffffffffffff167f72240c1be87ee789414e12fc30844d39a55d1eaf3b8741489fe381ad2b6cdd47856040518082815260200191505060405180910390a250505050565b6000809054906101000a900473ffffffffffffffffffffffffffffffffffffffff1673ffffffffffffffffffffffffffffffffffffffff163373ffffffffffffffffffffffffffffffffffffffff16146106d757600080fd5b6000600260050160006101000a81548160ff02191690831515021790555060003073ffffffffffffffffffffffffffffffffffffffff163190506000809054906101000a900473ffffffffffffffffffffffffffffffffffffffff1673ffffffffffffffffffffffffffffffffffffffff166108fc829081150290604051600060405180830381858888f19350505050158015610778573d6000803e3d6000fd5b506000809054906101000a900473ffffffffffffffffffffffffffffffffffffffff1673ffffffffffffffffffffffffffffffffffffffff167f21e7b2f8578199ba3904a63b7cd799784c8cadde57dde563a7de95ef792e256c826040518082815260200191505060405180910390a250565b6000809054906101000a900473ffffffffffffffffffffffffffffffffffffffff1681565b600061081b33610949565b9050600060015482029050600082141561089d576040517f08c379a00000000000000000000000000000000000000000000000000000000081526004018080602001828103825260148152602001807f4e6f207469636b6574732070757263686173656400000000000000000000000081525060200191505060405180910390fd5b816002600301600082825403925050819055503373ffffffffffffffffffffffffffffffffffffffff166108fc829081150290604051600060405180830381858888f193505050501580156108f6573d6000803e3d6000fd5b503373ffffffffffffffffffffffffffffffffffffffff167f492e1d962a477f77890c7cfdb563d7ddc58fee6505741794fa5700ada3c16041836040518082815260200191505060405180910390a25050565b6000600260040160008373ffffffffffffffffffffffffffffffffffffffff1673ffffffffffffffffffffffffffffffffffffffff16815260200190815260200160002054905091905056fea165627a7a72305820fb04eafa1fe7c3605e2d0122faea6e4d89ceacc5e6013d30094eb48b713c98b90029",
  "source": "pragma solidity ^0.5.0;\n\n    /*\n        The EventTickets contract keeps track of the details and ticket sales of one event.\n     */\n\ncontract EventTickets {\n\n    /*\n        Create a public state variable called owner.\n        Use the appropriate keyword to create an associated getter function.\n        Use the appropriate keyword to allow ether transfers.\n     */\n    address payable public owner;\n\n    uint   TICKET_PRICE = 100 wei;\n\n    /*\n        Create a struct called \"Event\".\n        The struct has 6 fields: description, website (URL), totalTickets, sales, buyers, and isOpen.\n        Choose the appropriate variable type for each field.\n        The \"buyers\" field should keep track of addresses and how many tickets each buyer purchases.\n    */\n    struct Event {string description; string website; uint totalTickets; uint sales; mapping(address => uint) buyers; bool isOpen;}\n\n    Event myEvent;\n\n    /*\n        Define 3 logging events.\n        LogBuyTickets should provide information about the purchaser and the number of tickets purchased.\n        LogGetRefund should provide information about the refund requester and the number of tickets refunded.\n        LogEndSale should provide infromation about the contract owner and the balance transferred to them.\n    */\n    event LogBuyTickets(address indexed purchaser, uint ticketsCount);\n    event LogGetRefund(address indexed refundRequestor, uint ticketsCount);\n    event LogEndSale(address indexed owner, uint sales);\n\n    /*\n        Create a modifier that throws an error if the msg.sender is not the owner.\n    */\n    modifier isOwner() { \n        require (msg.sender == owner);\n        _;}\n    /*\n        Define a constructor.\n        The constructor takes 3 arguments, the description, the URL and the number of tickets for sale.\n        Set the owner to the creator of the contract.\n        Set the appropriate myEvent details.\n    */\n     constructor (string memory _description, string memory _URL, uint _nbTickets) public {\n         owner = msg.sender;\n         myEvent = Event(_description, _URL, _nbTickets,0,true);\n    }\n    /*\n        Define a function called readEvent() that returns the event details.\n        This function does not modify state, add the appropriate keyword.\n        The returned details should be called description, website, uint totalTickets, uint sales, bool isOpen in that order.\n    */\n    // function readEvent()\n    //     public\n    //     returns(string memory description, string memory website, uint totalTickets, uint sales, bool isOpen)\n    function readEvent()\n        public view\n        returns(string memory description, string memory website, uint totalTickets, uint sales, bool isOpen)\n    {\n        return (myEvent.description,myEvent.website,myEvent.totalTickets,myEvent.sales,myEvent.isOpen);\n    }\n\n    /*\n        Define a function called getBuyerTicketCount().\n        This function takes 1 argument, an address and\n        returns the number of tickets that address has purchased.\n    */\n    function getBuyerTicketCount(address buyer) public view returns (uint) {\n        return myEvent.buyers[buyer];\n    }\n\n    /*\n        Define a function called buyTickets().\n        This function allows someone to purchase tickets for the event.\n        This function takes one argument, the number of tickets to be purchased.\n        This function can accept Ether.\n        Be sure to check:\n            - That the event isOpen\n            - That the transaction value is sufficient for the number of tickets purchased\n            - That there are enough tickets in stock\n        Then:\n            - add the appropriate number of tickets to the purchasers count\n            - account for the purchase in the remaining number of available tickets\n            - refund any surplus value sent with the transaction\n            - emit the appropriate event\n    */\n    function buyTickets(uint _nbTix) public payable  {\n        uint price_to_pay = TICKET_PRICE * _nbTix;\n        uint returned_money = msg.value - price_to_pay;\n        uint remaining_tickets = myEvent.totalTickets - myEvent.sales;\n        require (myEvent.isOpen == true,\"Event no longer open\");\n        require(_nbTix <= remaining_tickets,\"Not enough tickets available\");\n        require (returned_money >= 0,\"Not enough funds provided\");\n        myEvent.sales += _nbTix;\n        if ( returned_money > 0) {\n            msg.sender.transfer(returned_money);\n        }\n        myEvent.buyers[msg.sender] = _nbTix;\n        emit LogBuyTickets(msg.sender, _nbTix);\n    }\n\n    /*\n        Define a function called getRefund().\n        This function allows someone to get a refund for tickets for the account they purchased from.\n        TODO:\n            - Check that the requester has purchased tickets.\n            - Make sure the refunded tickets go back into the pool of avialable tickets.\n            - Transfer the appropriate amount to the refund requester.\n            - Emit the appropriate event.\n    */\n    function getRefund() public payable {\n        uint nbTixForBuyer = getBuyerTicketCount(msg.sender);\n        uint refund_amount = nbTixForBuyer * TICKET_PRICE;\n        require(nbTixForBuyer != 0,\"No tickets purchased\");\n        myEvent.sales -= nbTixForBuyer;\n        msg.sender.transfer(refund_amount);\n        emit LogGetRefund(msg.sender, nbTixForBuyer);\n    }\n\n    /*\n        Define a function called endSale().\n        This function will close the ticket sales.\n        This function can only be called by the contract owner.\n        TODO:\n            - close the event\n            - transfer the contract balance to the owner\n            - emit the appropriate event\n    */\n    function endSale() public payable isOwner {\n        myEvent.isOpen = false;\n        uint salesResults = address(this).balance;\n        owner.transfer(salesResults);\n        emit LogEndSale(owner, salesResults);\n    }\n}\n",
  "sourcePath": "/Users/Jean-Marc/Documents/GitHub/event-tickets-exercise-Jayhem/contracts/EventTickets.sol",
  "compiler": {
    "name": "solc",
    "version": "0.5.8+commit.23d335f2.Emscripten.clang"
  },
  "schemaVersion": "3.0.10",
  "updatedAt": "2019-06-30T00:41:24.174Z",
  "devdoc": {
    "methods": {}
  },
  "userdoc": {
    "methods": {}
  }
}